:100000000C942A000C943C000C943C000C943C0092
:100010000C943C000C943C000C943C000C9410029A
:100020000C943C000C943C000C943C000C943C0060
:100030000C943C000C943C000C943C000C943C0050
:100040000C943C000C943C000C943C000C943C0040
:100050000C943C0011241FBECFE5D8E0DEBFCDBF1D
:1000600020E0A0E6B0E001C01D92A538B207E1F79C
:100070000E94EA000C9437020C940000883098F03B
:1000800098EF980F983090F090EF980F9830A0F17B
:1000900098EE980F983098F5E0E3F0E032C0885180
:1000A000883040F40AC0E9E3F0E007C0892FE6E3B6
:1000B000F0E003C080E001C0892F662379F0613051
:1000C00029F5428121E030E0B90102C0660F771FB7
:1000D0008A95E2F7CB01842B82830895428121E047
:1000E00030E0B90102C0660F771F8A95E2F7CB01B5
:1000F0008095842382830895E3E3F0E002C0E0E08A
:10010000F0E090EF980F9830B8F2C9CF089588309A
:10011000A8F098EF980F9830A0F090EF980F9830D3
:1001200008F44DC098EE980F983008F04BC0E0E30B
:10013000F0E04AC08851883040F40AC0E9E3F0E0BA
:1001400007C0892FE6E3F0E003C080E001C0892FFB
:100150006130B1F018F0623029F10895418121E059
:1001600030E0B90102C0660F771F8A95E2F7CB0134
:10017000962F9095942391839281892B8283089561
:10018000418121E030E0B90102C0660F771F8A95F6
:10019000E2F7CB018095942F982391839281892354
:1001A00082830895418121E030E0B90102C0660FE9
:1001B000771F8A95E2F7CB01842B81830895E3E3CF
:1001C000F0E002C0E0E0F0E090EF980F983008F423
:1001D000BECFB0CFCF93DF93CDB7DEB760970FB66A
:1001E000F894DEBF0FBECDBF62E08CE00E948700B6
:1001F00062E08DE00E94870062E08EE00E9487004E
:100200000E942B0183ED91E09A8389838CED95E028
:100210009C838B83CE0101960E94780180EE91E051
:100220009A87898780ED97E09C878B87CE01099616
:100230000E9478010E94690180E090E060960FB60C
:10024000F894DEBF0FBECDBFDF91CF91089581E05E
:10025000809362000895E3E6F0E083E890E0118285
:1002600010821382128217821682158214823896A7
:10027000E817F907A1F708950F931F93CF93DF9322
:100280008091600090916100892BF1F0C3E6D0E08D
:1002900000E010E08E819F819C01215031093F8355
:1002A0002E83892B39F4E881F98109958A819B8114
:1002B0009F838E830F5F1F4F80916000909161003C
:1002C00028960817190730F3DF91CF911F910F91EE
:1002D00008950E94ED0187E291E00E940B02809157
:1002E00062008130E1F7109262000E943C01F7CF7A
:1002F000DC018091600090916100049708F051C08A
:10030000E0916000F09161008D919C911197EE0F4A
:10031000FF1FEE0FFF1FEE0FFF1FED59FF4F9183E1
:100320008083E0916000F091610012968D919C9124
:100330001397EE0FFF1FEE0FFF1FEE0FFF1FED597C
:10034000FF4F93838283E0916000F09161001296E9
:100350008D919C911397EE0FFF1FEE0FFF1FEE0F75
:10036000FF1FED59FF4F97838683E0916000F09166
:10037000610014968D919C911597EE0FFF1FEE0F63
:10038000FF1FEE0FFF1FED59FF4F95838483809170
:1003900060009091610001969093610080936000ED
:1003A000089580E0089561E08CE00E943E0061E0E5
:1003B0008DE00E943E0061E08EE00E943E000895C4
:1003C00060E08CE00E943E0060E08DE00E943E0014
:1003D00060E08EE00E943E0008958FB58E7F8FBD55
:1003E0008FB58D7F8FBD8EB58F7E8EBD8EB58860AB
:1003F0008EBD8EE38BBD80E88ABD8EB581608EBDDB
:100400008EB58D7F8EBD8EB58B7F8EBD89B7806199
:1004100089BF789408959093840080938300089511
:100420001F920F920FB60F9211242F933F934F9369
:100430005F936F937F938F939F93AF93BF93EF934C
:10044000FF93E0918300F09184000995FF91EF9173
:10045000BF91AF919F918F917F916F915F914F91DC
:100460003F912F910F900FBE0F901F901895F89409
:02047000FFCFBC
:00000001FF
