:100000000C942A000C9434000C9434000C943400AA
:100010000C9434000C9434000C9434000C94340090
:100020000C9434000C9434000C9434000C94340080
:100030000C9434000C9434000C9434000C94340070
:100040000C9434000C9434000C9434000C94340060
:100050000C94340011241FBECFE5D8E0DEBFCDBF25
:100060000E9420010C946C010C940000883098F0E0
:1000700098EF980F983090F090EF980F9830A0F18B
:1000800098EE980F983098F5E0E3F0E032C0885190
:10009000883040F40AC0E9E3F0E007C0892FE6E3C6
:1000A000F0E003C080E001C0892F662379F0613061
:1000B00029F521E030E0A90102C0440F551F8A95BF
:1000C000E2F7CA019281892B8283089521E030E012
:1000D000A90102C0440F551F8A95E2F7CA01809515
:1000E0009281892382830895E3E3F0E002C0E0E097
:1000F000F0E090EF980F9830B8F2C9CF08958830AB
:1001000098F098EF980F983090F090EF980F983003
:10011000B0F098EE980F9830A8F4E0E3F0E014C047
:1001200088518830B0F007C0E9E3F0E012C0892FB1
:10013000E6E3F0E00EC080E00CC0892F0AC0E3E3E4
:10014000F0E002C0E0E0F0E090EF980F983040F768
:10015000F4CF2081422F50E021E030E0082E02C091
:10016000220F331F0A94E2F724233523A90102C08A
:10017000559547958A95E2F7CA0108958830A8F009
:1001800098EF980F9830A0F090EF980F983008F4FF
:100190004CC098EE980F983008F04AC0E0E3F0E0C9
:1001A00049C08851883040F40AC0E9E3F0E007C054
:1001B000892FE6E3F0E003C080E001C0892F6130C1
:1001C000B1F018F0623021F1089521E030E0A9018A
:1001D00002C0440F551F8A95E2F7CA01942F9095EB
:1001E0002181922391839281892B8283089521E03A
:1001F00030E0A90102C0440F551F8A95E2F7CA01F9
:100200008095918198239183928189238283089597
:1002100021E030E0A90102C0440F551F8A95E2F7A2
:10022000CA019181892B81830895E3E3F0E002C044
:10023000E0E0F0E090EF980F983008F4BFCFB1CF36
:100240000E94490161E08AE00E94BE0062E08DE008
:100250000E94BE008DE00E947F008AE00E947F0025
:10026000811105C011C061E08DE00E9436008AE076
:100270000E947F008111F7CF61E08DE00E9436007F
:1002800088EE93E00E94500160E08DE00E9436000D
:10029000E4CF83B7877F83BF83B7806483BF08952C
:1002A00023B7216023BF23B7226023BF23B72B7F4F
:1002B00023BF29EF2CBF009771F0AC0120E030E0A4
:1002C00008B601FEFDCF98B7946098BF2F5F3F4FEF
:0C02D00024173507A9F70895F894FFCF14
:00000001FF
