S011000054494D45525F50574D2E737265633F
S11300000C942A000C9434000C9434000C943400A6
S11300100C9434000C9434000C9434000C9434008C
S11300200C9434000C9434000C9434000C9434007C
S11300300C9434000C9434000C9434000C9434006C
S11300400C9434000C9434000C9434000C9434005C
S11300500C94340011241FBECFE5D8E0DEBFCDBF21
S11300600E94D7010C9410030C940000CF93DF93EB
S113007000D000D0CDB7DEB78B836C831A8219828F
S11300808B81883028F489E390E09A83898320C0A7
S11300908B81803140F48B81883028F086E390E0B6
S11300A09A83898315C08B81883140F48B81803198
S11300B028F083E390E09A8389830AC08B8180329D
S11300C038F48B81883120F080E390E09A8389832F
S11300D089819A814B816C810E94760000000F9087
S11300E00F900F900F90DF91CF910895CF93DF93EE
S11300F000D000D01F92CDB7DEB79B838A836C8378
S11301004D8319828D81883018F48D8189831DC0B7
S11301108D81803138F48D81883020F08D81885034
S1130120898313C08D81883138F48D81803120F02A
S11301308D818051898309C08D81803230F48D8115
S1130140883118F08D81885189838C81882F90E0C3
S11301500097C9F0019709F02DC08A819B81FC01A9
S11301608281482F8981282F30E081E090E002C00D
S1130170880F991F2A95E2F7842B282F8A819B8167
S1130180FC01228317C08A819B81FC018281482F54
S11301908981282F30E081E090E002C0880F991F08
S11301A02A95E2F780958423282F8A819B81FC017C
S11301B02283000000000F900F900F900F900F907B
S11301C0DF91CF910895CF93DF9300D000D0CDB7C6
S11301D0DEB78B836C831A8219828B81883028F472
S11301E089E390E09A83898320C08B81803140F435
S11301F08B81883028F086E390E09A83898315C048
S11302008B81883140F48B81803128F083E390E046
S11302109A8389830AC08B81803238F48B81883138
S113022020F080E390E09A83898389819A814C81CC
S11302306B810E94230100000F900F900F900F908C
S1130240DF91CF910895CF93DF9300D000D01F9218
S1130250CDB7DEB79B838A836C834D8319828C81EF
S1130260883018F48C8189831DC08C81803138F4E6
S11302708C81883020F08C818850898313C08C81D4
S1130280883138F48C81803120F08C8180518983CD
S113029009C08C81803230F48C81883118F08C81D3
S11302A0885189838D81882F90E08130910599F15F
S11302B08230910509F45CC0892B09F06FC08A81F2
S11302C09B81FC018181482F8981282F30E081E0C6
S11302D090E002C0880F991F2A95E2F78095842345
S11302E0282F8A819B81FC0121838A819B81FC01C7
S11302F08281482F8981282F30E081E090E002C07C
S1130300880F991F2A95E2F7842B282F8A819B81D5
S1130310FC01228343C08A819B81FC018181482F97
S11303208981282F30E081E090E002C0880F991F76
S11303302A95E2F780958423282F8A819B81FC01EA
S113034021838A819B81FC018281482F8981282F06
S113035030E081E090E002C0880F991F2A95E2F70F
S113036080958423282F8A819B81FC01228316C0D7
S11303708A819B81FC018181482F8981282F30E06B
S113038081E090E002C0880F991F2A95E2F7842B40
S1130390282F8A819B81FC012183000000000F909B
S11303A00F900F900F900F90DF91CF910895CF93FE
S11303B0DF93CDB7DEB70E94E7016CE271E080E025
S11303C00E947A0280E090E0DF91CF910895CF936C
S11303D0DF93CDB7DEB762E08DE10E94E30062E017
S11303E08CE10E94E30062E08AE10E94E30062E0A3
S11303F08BE10E94E30062E08EE10E94E30062E090
S11304008FE10E94E30060E08AE10E94360061E02F
S11304108BE10E94360060E08EE10E94360061E0CC
S11304208FE10E94360086E490E026E430E0F90192
S113043021852260FC01218786E490E026E430E0F7
S1130440F90121852E7FFC01218786E490E026E4D2
S113045030E0F90120852860FC01208786E490E0E3
S113046026E430E0F90120852061FC01208786E440
S113047090E026E430E0F90121852064FC01218725
S113048086E490E026E430E0F90121852068FC014F
S1130490218786E490E026E430E0F901218520619B
S11304A0FC01218786E490E026E430E0F90121850F
S11304B02062FC01218786E490E026E430E0F90123
S11304C020852160FC01208786E490E026E430E06A
S11304D0F90120852D7FFC01208786E490E026E445
S11304E030E0F90120852B7FFC0120870000DF919B
S11304F0CF910895CF93DF93CDB7DEB727970FB68B
S1130500F894DEBF0FBECDBF8D837F836E838E8153
S11305109F81880F991F9C0140E050E080E094E2A5
S1130520A4EFB0E0BC01CD010E94DF02DA01C901F1
S11305309A83898389819A819695879596958795DB
S11305409C01ABE7B4E10E9401039C013695279519
S11305508D81882F90E044E650E0BA01681B790B46
S1130560CB01AC01249FC001259F900D349F900DB9
S113057011249C838B8386E490E02B813C81232F80
S11305803327FC01238386E490E02B81FC01228342
S113059086E490E029813A81232F3327FC012183CB
S11305A086E490E02981FC012083000027960FB6A1
S11305B0F894DEBF0FBECDBFDF91CF910895A1E2C5
S11305C01A2EAA1BBB1BFD010DC0AA1FBB1FEE1FC9
S11305D0FF1FA217B307E407F50720F0A21BB30B14
S11305E0E40BF50B661F771F881F991F1A9469F790
S11305F060957095809590959B01AC01BD01CF01EC
S11306000895A29FB001B39FC001A39F700D811DE7
S11306101124911DB29F700D811D1124911D089507
S1070620F894FFCF78
S9030000FC
