S00C00004750494F2E73726563E9
S11300000C942A000C9434000C9434000C943400A6
S11300100C9434000C9434000C9434000C9434008C
S11300200C9434000C9434000C9434000C9434007C
S11300300C9434000C9434000C9434000C9434006C
S11300400C9434000C9434000C9434000C9434005C
S11300500C94340011241FBECFE5D8E0DEBFCDBF21
S11300600E94FC010C943D020C940000CF93DF939A
S113007000D000D0CDB7DEB79C838B831A8219825F
S113008005C089819A8101969A8389838B819C8199
S11300904DE1489F9001499F300D112489819A8137
S11300A08217930770F300000F900F900F900F903A
S11300B0DF91CF910895CF93DF9300D000D0CDB7D7
S11300C0DEB78B836C831A8219828B81883028F483
S11300D089E390E09A83898320C08B81803140F446
S11300E08B81883028F086E390E09A83898315C059
S11300F08B81883140F48B81803128F083E390E058
S11301009A8389830AC08B81803238F48B81883149
S113011020F080E390E09A83898389819A814B81DE
S11301206C810E949B0000000F900F900F900F9025
S1130130DF91CF910895CF93DF9300D000D01F9229
S1130140CDB7DEB79B838A836C834D8319828D81FF
S1130150883018F48D8189831DC08D81803138F4F5
S11301608D81883020F08D818850898313C08D81E2
S1130170883138F48D81803120F08D8180518983DC
S113018009C08D81803230F48D81883118F08D81E1
S1130190885189838C81882F90E00097C9F001975A
S11301A009F02DC08A819B81FC018281482F8981BD
S11301B0282F30E081E090E002C0880F991F2A9533
S11301C0E2F7842B282F8A819B81FC01228317C0AC
S11301D08A819B81FC018281482F8981282F30E00C
S11301E081E090E002C0880F991F2A95E2F780957C
S11301F08423282F8A819B81FC0122830000000034
S11302000F900F900F900F900F90DF91CF91089562
S1130210CF93DF9300D000D0CDB7DEB78B836C8350
S11302201A8219828B81883028F489E390E09A83BA
S1130230898320C08B81803140F48B81883028F001
S113024086E390E09A83898315C08B81883140F4DA
S11302508B81803128F083E390E09A8389830AC0FC
S11302608B81803238F48B81883120F080E390E0F8
S11302709A83898389819A814C816B810E94480188
S113028000000F900F900F900F90DF91CF91089581
S1130290CF93DF9300D000D01F92CDB7DEB79B83FE
S11302A08A836C834D8319828C81883018F48C8105
S11302B089831DC08C81803138F48C81883020F092
S11302C08C818850898313C08C81883138F48C8167
S11302D0803120F08C818051898309C08C818032E7
S11302E030F48C81883118F08C81885189838D8118
S11302F0882F90E08130910599F18230910509F4BD
S11303005CC0892B09F06FC08A819B81FC018181CB
S1130310482F8981282F30E081E090E002C0880FC7
S1130320991F2A95E2F780958423282F8A819B813F
S1130330FC0121838A819B81FC018281482F898170
S1130340282F30E081E090E002C0880F991F2A95A1
S1130350E2F7842B282F8A819B81FC01228343C0EE
S11303608A819B81FC018181482F8981282F30E07B
S113037081E090E002C0880F991F2A95E2F78095EA
S11303808423282F8A819B81FC0121838A819B817C
S1130390FC018281482F8981282F30E081E090E0A0
S11303A002C0880F991F2A95E2F780958423282F8D
S11303B08A819B81FC01228316C08A819B81FC0176
S11303C08181482F8981282F30E081E090E002C0AC
S11303D0880F991F2A95E2F7842B282F8A819B8105
S11303E0FC012183000000000F900F900F900F90EC
S11303F00F90DF91CF910895CF93DF93CDB7DEB700
S113040062E08DE00E94080162E08EE00E94080133
S113041062E08FE00E94080161E08DE00E945B00D1
S113042080ED97E00E94360060E08DE00E945B0062
S113043080ED97E00E94360061E08FE00E945B004F
S113044080ED97E00E94360060E08FE00E945B0040
S113045080ED97E00E94360061E08EE00E945B0030
S113046080ED97E00E94360060E08EE00E945B0021
S111047080ED97E00E943600CFCFF894FFCFC6
S9030000FC
