:100000000C942A000C9447000C9447000C94470071
:100010000C9447000C9447000C9447000C94A103E7
:100020000C9447000C9447000C9447000C94470034
:100030000C9447000C9447000C9447000C94470024
:100040000C9447000C9447000C9447000C94470014
:100050000C94470011241FBECFE5D8E0DEBFCDBF12
:1000600010E0A0E6B0E0E8E9F7E002C005900D92EC
:10007000A239B107D9F720E0A2E9B0E001C01D9292
:10008000A93CB207E1F70E9434010C94CA030C9416
:100090000000883098F098EF980F983090F090EF2B
:1000A000980F9830A0F198EE980F983098F5E0E30B
:1000B000F0E032C08851883040F40AC0E9E3F0E053
:1000C00007C0892FE6E3F0E003C080E001C0892F7C
:1000D000662379F0613029F5428121E030E0B901F1
:1000E00002C0660F771F8A95E2F7CB01842B8283CB
:1000F0000895428121E030E0B90102C0660F771F08
:100100008A95E2F7CB018095842382830895E3E307
:10011000F0E002C0E0E0F0E090EF980F9830B8F225
:10012000C9CF0895982F883098F088EF890F8830CC
:1001300090F080EF890F8830B0F088EE890F88301A
:10014000A8F4E0E3F0E014C098519830B0F007C094
:10015000E9E3F0E012C0982FE6E3F0E00EC090E093
:100160000CC0982F0AC0E3E3F0E002C0E0E0F0E04A
:1001700080EF890F883040F7F4CF408121E030E0F4
:10018000092E02C0220F331F0A94E2F750E0242305
:100190003523A90102C0559547959A95E2F7CA0102
:1001A00008958830A8F098EF980F9830A0F090EF5D
:1001B000980F983008F44DC098EE980F983008F0DA
:1001C0004BC0E0E3F0E04AC08851883040F40AC0F8
:1001D000E9E3F0E007C0892FE6E3F0E003C080E048
:1001E00001C0892F6130B1F018F0623029F1089513
:1001F000418121E030E0B90102C0660F771F8A9586
:10020000E2F7CB01962F9095942391839281892BCD
:1002100082830895418121E030E0B90102C0660F78
:10022000771F8A95E2F7CB018095942F98239183CD
:100230009281892382830895418121E030E0B901D0
:1002400002C0660F771F8A95E2F7CB01842B81836A
:100250000895E3E3F0E002C0E0E0F0E090EF980FF3
:10026000983008F4BECFB0CFCF93DF93CDB7DEB7D1
:10027000E2970FB6F894DEBF0FBECDBF62E08CE010
:100280000E94D10062E08DE00E94D10062E08EE029
:100290000E94D10062E08FE00E94D10061E08AE01C
:1002A0000E94D1000E94A6018AE0E0E6F0E0DE01B3
:1002B000119601900D928A95E1F7CE0101960E9468
:1002C00098028AE0EAE6F0E0DE011B9601900D92CA
:1002D0008A95E1F7CE010B960E9498028AE0E4E746
:1002E000F0E0DE01559601900D928A95E1F7CE017E
:1002F00045960E9498028AE0EEE7F0E0DE015F9604
:1003000001900D928A95E1F7CE014F960E949802D6
:100310008AE0E8E8F0E0DE01999601900D928A9576
:10032000E1F7CE0189960E9498020E94110280E0B6
:1003300090E0E2960FB6F894DEBF0FBECDBFDF911E
:10034000CF91089581E080939400089520E030E0FB
:10035000F901EE0FFF1FC901880F991F880F991F20
:10036000880F991FE80FF91FE956FF4F118210827D
:100370001382128217821682158214822F5F3F4FDA
:100380002530310529F708950F931F93CF93DF93FD
:100390008091920090919300892BF1F1C0E0D0E020
:1003A000CE01880F991F880F991F880F991FFE0192
:1003B000EE0FFF1FE80FF91FE956FF4F8681978167
:1003C0009C012150310937832683892BE9F4CE0122
:1003D000880F991F880F991F880F991FFE01EE0F34
:1003E000FF1FE80FF91FE956FF4F80859185823581
:1003F000910551F08F010190F081E02D0995F801F0
:100400008281938197838683219680919200909137
:100410009300C817D90720F2DF91CF911F910F9158
:100420000895CF93DF93CDB7DEB72A970FB6F89430
:10043000DEBF0FBECDBF80E090E063C0BC016F5F48
:100440007F4F20919200309193006217730708F05C
:1004500057C09B01AC01440F551F880F991F880F8F
:10046000991F880F991F840F951F89569F4F7C01F4
:1004700044E0E40EF11CF701A081B181A901440F11
:10048000551F440F551F440F551FF901EE0FFF1F55
:10049000E40FF51FE956FF4F448155814A175B076A
:1004A00028F54AE0FC01DE01119601900D924A9573
:1004B000E1F7A901440F551F440F551F440F551F65
:1004C000F901EE0FFF1F4E0F5F1F49565F4F1AE0F5
:1004D000FA01DC0101900D921A95E1F71AE0FE0194
:1004E0003196DA0101900D921A95E1F72F5F3F4F97
:1004F00040919200509193002417350708F4BBCF28
:10050000CB0120919200309193008217930708F459
:1005100095CF0E947E0382EA91E00E949C03809125
:1005200094008130E1F7109294000E94C401F7CF4B
:10053000DC018091920090919300059708F07DC0B6
:1005400080919200909193002D913C911197FC0124
:10055000EE0FFF1F880F991F880F991F880F991F93
:10056000E80FF91FE956FF4F3183208380919200F5
:100570009091930012962D913C911397FC01EE0FF0
:10058000FF1F880F991F880F991F880F991FE80F69
:10059000F91FE956FF4F3383228320919200309157
:1005A000930012968D919C911397F901EE0FFF1F06
:1005B000220F331F220F331F220F331FE20FF31FAF
:1005C000E956FF4F978386832091920030919300E4
:1005D00014968D919C911597F901EE0FFF1F220F34
:1005E000331F220F331F220F331FE20FF31FE95671
:1005F000FF4F958384832091920030919300189649
:100600008D919C911997F901EE0FFF1F220F331F57
:10061000220F331F220F331FE20FF31FE956FF4F44
:10062000918780878091920090919300019690939A
:1006300093008093920081E0089580E008952091D6
:10064000920030919300232B81F140E050E062E56D
:1006500070E09A01220F331F220F331F220F331F26
:10066000FA01EE0FFF1FE20FF31FE956FF4F20853F
:1006700031852817390781F49A01220F331F220F81
:10068000331F220F331FFA01EE0FFF1FE20FF31F7C
:10069000E956FF4F718760874F5F5F4F209192004F
:1006A0003091930042175307A0F2089561E08CE067
:1006B0000E944900089561E08DE00E94490008957C
:1006C00061E08EE00E94490008958FE00E94920050
:1006D000811105C061E08FE00E944900089560E04B
:1006E0008FE00E94490008958AE00E9492008130C4
:1006F00021F484E090E00E941F0308958FB58E7F5F
:100700008FBD8FB58D7F8FBD8EB58F7E8EBD8EB523
:1007100088608EBD8EE38BBD80E88ABD8EB581601A
:100720008EBD8EB58D7F8EBD8EB58B7F8EBD89B70C
:10073000806189BF78940895909396008093950086
:1007400008951F920F920FB60F9211242F933F938B
:100750004F935F936F937F938F939F93AF93BF93C9
:10076000EF93FF93E0919500F0919600309709F098
:100770000995FF91EF91BF91AF919F918F917F91DB
:100780006F915F914F913F912F910F900FBE0F90FE
:080790001F901895F894FFCFAB
:100798005603E8030100E80301005B03D0070000EB
:1007A800D00702006003B80B0300B80B0300650311
:1007B800A00F0400A00F0400740388130600881318
:0207C800070028
:00000001FF
