:100000000C942A000C943C000C94DD010C943C00F0
:100010000C943C000C943C000C943C000C943C0070
:100020000C943C000C943C000C94B0010C943C00EB
:100030000C943C000C943C000C943C000C943C0050
:100040000C943C000C943C000C943C000C943C0040
:100050000C943C0011241FBECFE5D8E0DEBFCDBF1D
:1000600020E0A0E6B0E001C01D92A936B207E1F79A
:100070000E9464010C9409020C940000883098F0EE
:1000800098EF980F983090F090EF980F9830A0F17B
:1000900098EE980F983098F5E0E3F0E032C0885180
:1000A000883040F40AC0E9E3F0E007C0892FE6E3B6
:1000B000F0E003C080E001C0892F662379F0613051
:1000C00029F521E030E0A90102C0440F551F8A95AF
:1000D000E2F7CA019281892B8283089521E030E002
:1000E000A90102C0440F551F8A95E2F7CA01809505
:1000F0009281892382830895E3E3F0E002C0E0E087
:10010000F0E090EF980F9830B8F2C9CF089588309A
:1001100098F098EF980F983090F090EF980F9830F3
:10012000B0F098EE980F9830A8F4E0E3F0E014C037
:1001300088518830B0F007C0E9E3F0E012C0892FA1
:10014000E6E3F0E00EC080E00CC0892F0AC0E3E3D4
:10015000F0E002C0E0E0F0E090EF980F983040F758
:10016000F4CF2081422F50E021E030E0082E02C081
:10017000220F331F0A94E2F724233523A90102C07A
:10018000559547958A95E2F7CA0108958830A8F0F9
:1001900098EF980F9830A0F090EF980F983008F4EF
:1001A0004CC098EE980F983008F04AC0E0E3F0E0B9
:1001B00049C08851883040F40AC0E9E3F0E007C044
:1001C000892FE6E3F0E003C080E001C0892F6130B1
:1001D000B1F018F0623021F1089521E030E0A9017A
:1001E00002C0440F551F8A95E2F7CA01942F9095DB
:1001F0002181922391839281892B8283089521E02A
:1002000030E0A90102C0440F551F8A95E2F7CA01E8
:100210008095918198239183928189238283089587
:1002200021E030E0A90102C0440F551F8A95E2F792
:10023000CA019181892B81830895E3E3F0E002C034
:10024000E0E0F0E090EF980F983008F4BFCFB1CF26
:1002500080916200813051F461E08DE00E943E00A7
:100260001092620081E08093610004C0809161007F
:10027000813069F460E08DE00E943E0061E08EE034
:100280000E943E00109261001092600008958091DB
:100290006000813069F460E08DE00E943E0061E022
:1002A0008EE00E943E001092600081E08093620028
:1002B000089510926200109261001092600061E057
:1002C0008DE00E943E00089562E08DE00E94C6002D
:1002D00062E08EE00E94C60062E08FE00E94C600ED
:1002E0000E9481010E94960188EE93E00E94A10184
:1002F00088E291E00E94A60189E591E00E94AB01AD
:10030000F3CF83B7877F83BF83B7806483BF83B70F
:10031000816083BF83B7826083BF83B78B7F83BFD6
:1003200089EF8CBF89B7826089BF089561E08AE058
:100330000E94C60084B7806484BF8BB780628BBF85
:1003400008959093640080936300089590936600ED
:1003500080936500089590936800809367000895E6
:100360001F920F920FB60F9211242F933F934F932A
:100370005F936F937F938F939F93AF93BF93EF930D
:10038000FF938091630090916400892B29F4E091A0
:100390006500F09166000995FF91EF91BF91AF91D3
:1003A0009F918F917F916F915F914F913F912F918D
:1003B0000F900FBE0F901F9018951F920F920FB6BF
:1003C0000F9211242F933F934F935F936F937F93DB
:1003D0008F939F93AF93BF93EF93FF938AE00E9415
:1003E0008700882329F0E0916700F0916800099563
:1003F000FF91EF91BF91AF919F918F917F916F91FD
:100400005F914F913F912F910F900FBE0F901F90D2
:060410001895F894FFCFDF
:00000001FF
