S01400004F535F5363686564756C65722E7372656370
S11300000C942A000C9447000C9447000C9447006D
S11300100C9447000C9447000C9447000C945E0128
S11300200C9447000C9447000C9447000C94470030
S11300300C9447000C9447000C9447000C94470020
S11300400C9447000C9447000C9447000C94470010
S11300500C94470011241FBECFE5D8E0DEBFCDBF0E
S113006010E0A0E6B0E0E4E3F3E002C005900D92F6
S1130070A636B107D9F720E0A6E6B0E001C01D928C
S1130080AB36B207E1F70E94F5000C9498010C948A
S11300900000883098F098EF980F983090F090EF27
S11300A0980F9830A0F198EE980F983098F5E0E307
S11300B0F0E032C08851883040F40AC0E9E3F0E04F
S11300C007C0892FE6E3F0E003C080E001C0892F78
S11300D0662379F0613029F5428121E030E0B901ED
S11300E002C0660F771F8A95E2F7CB01842B8283C7
S11300F00895428121E030E0B90102C0660F771F04
S11301008A95E2F7CB018095842382830895E3E303
S1130110F0E002C0E0E0F0E090EF980F9830B8F221
S1130120C9CF08958830A8F098EF980F9830A0F0C0
S113013090EF980F983008F44DC098EE980F9830CF
S113014008F04BC0E0E3F0E04AC08851883040F446
S11301500AC0E9E3F0E007C0892FE6E3F0E003C05A
S113016080E001C0892F6130B1F018F0623029F1CC
S11301700895418121E030E0B90102C0660F771F84
S11301808A95E2F7CB01962F9095942391839281DF
S1130190892B82830895418121E030E0B90102C0B6
S11301A0660F771F8A95E2F7CB018095942F9823E9
S11301B091839281892382830895418121E030E0F3
S11301C0B90102C0660F771F8A95E2F7CB01842B31
S11301D081830895E3E3F0E002C0E0E0F0E090EF13
S11301E0980F983008F4BECFB0CF62E08CE00E9444
S11301F0920062E08DE00E94920062E08EE00E9434
S113020092000E941D0180E090E0089581E08093B7
S1130210660008950F931F93CF93DF93C0E6D0E059
S113022006E610E0E991F9910995C017D107D1F7D5
S1130230DF91CF911F910F9108950E943B0186E0B9
S113024091E00E945901809166008130E1F710929B
S113025066000E940A01F7CF61E08CE00E94490029
S1130260089561E08DE00E944900089561E08EE008
S11302700E94490008958FB58E7F8FBD8FB58D7F05
S11302808FBD8EB58F7E8EBD8EB588608EBD8EE39C
S11302908BBD80E88ABD8EB581608EBD8EB58D7FA5
S11302A08EBD8EB58B7F8EBD89B7806189BF7894F2
S11302B0089590936A008093690008951F920F92A5
S11302C00FB60F9211242F933F934F935F936F9325
S11302D07F938F939F93AF93BF93EF93FF938091FB
S11302E0670090916800019690936800809367007E
S11302F08091670090916800019749F4E09169004A
S1130300F0916A0009951092680010926700FF91BD
S1130310EF91BF91AF919F918F917F916F915F9179
S11303204F913F912F910F900FBE0F901F901895F2
S1070330F894FFCF6B
S10903342C013101360129
S9030000FC
